{
  "_format": "hh-sol-artifact-1",
  "contractName": "Raffle",
  "sourceName": "contracts/Raffle.sol",
  "abi": [
    {
      "inputs": [
        {
          "internalType": "address",
          "name": "vrfCoordinator",
          "type": "address"
        },
        {
          "internalType": "uint256",
          "name": "entranceFee",
          "type": "uint256"
        },
        {
          "internalType": "bytes32",
          "name": "gasLane",
          "type": "bytes32"
        },
        {
          "internalType": "uint64",
          "name": "subscriptionId",
          "type": "uint64"
        },
        {
          "internalType": "uint32",
          "name": "callbackGasLimit",
          "type": "uint32"
        },
        {
          "internalType": "uint256",
          "name": "interval",
          "type": "uint256"
        }
      ],
      "stateMutability": "nonpayable",
      "type": "constructor"
    },
    {
      "inputs": [
        {
          "internalType": "address",
          "name": "have",
          "type": "address"
        },
        {
          "internalType": "address",
          "name": "want",
          "type": "address"
        }
      ],
      "name": "OnlyCoordinatorCanFulfill",
      "type": "error"
    },
    {
      "inputs": [],
      "name": "Raffle__NotEnoughETHEntered",
      "type": "error"
    },
    {
      "inputs": [],
      "name": "Raffle__NotOpen",
      "type": "error"
    },
    {
      "inputs": [],
      "name": "Raffle__TransferFailed",
      "type": "error"
    },
    {
      "inputs": [
        {
          "internalType": "uint256",
          "name": "currentBalance",
          "type": "uint256"
        },
        {
          "internalType": "uint256",
          "name": "numPlayers",
          "type": "uint256"
        },
        {
          "internalType": "uint256",
          "name": "raffleState",
          "type": "uint256"
        }
      ],
      "name": "Raffle__UpkeepNotNeeded",
      "type": "error"
    },
    {
      "anonymous": false,
      "inputs": [
        {
          "indexed": true,
          "internalType": "address",
          "name": "player",
          "type": "address"
        }
      ],
      "name": "RaffleEnter",
      "type": "event"
    },
    {
      "anonymous": false,
      "inputs": [
        {
          "indexed": true,
          "internalType": "uint256",
          "name": "requestId",
          "type": "uint256"
        }
      ],
      "name": "RequestedRaffleWinner",
      "type": "event"
    },
    {
      "anonymous": false,
      "inputs": [
        {
          "indexed": true,
          "internalType": "address",
          "name": "winner",
          "type": "address"
        }
      ],
      "name": "WinnerPicked",
      "type": "event"
    },
    {
      "inputs": [
        {
          "internalType": "bytes",
          "name": "",
          "type": "bytes"
        }
      ],
      "name": "checkUpkeep",
      "outputs": [
        {
          "internalType": "bool",
          "name": "upkeepNeeded",
          "type": "bool"
        },
        {
          "internalType": "bytes",
          "name": "",
          "type": "bytes"
        }
      ],
      "stateMutability": "nonpayable",
      "type": "function"
    },
    {
      "inputs": [],
      "name": "enterRaffle",
      "outputs": [],
      "stateMutability": "payable",
      "type": "function"
    },
    {
      "inputs": [],
      "name": "getEntranceFee",
      "outputs": [
        {
          "internalType": "uint256",
          "name": "",
          "type": "uint256"
        }
      ],
      "stateMutability": "view",
      "type": "function"
    },
    {
      "inputs": [],
      "name": "getInterval",
      "outputs": [
        {
          "internalType": "uint256",
          "name": "",
          "type": "uint256"
        }
      ],
      "stateMutability": "view",
      "type": "function"
    },
    {
      "inputs": [],
      "name": "getLatestTimeStamp",
      "outputs": [
        {
          "internalType": "uint256",
          "name": "",
          "type": "uint256"
        }
      ],
      "stateMutability": "view",
      "type": "function"
    },
    {
      "inputs": [],
      "name": "getNumWords",
      "outputs": [
        {
          "internalType": "uint256",
          "name": "",
          "type": "uint256"
        }
      ],
      "stateMutability": "pure",
      "type": "function"
    },
    {
      "inputs": [],
      "name": "getNumberOfPlayers",
      "outputs": [
        {
          "internalType": "uint256",
          "name": "",
          "type": "uint256"
        }
      ],
      "stateMutability": "view",
      "type": "function"
    },
    {
      "inputs": [
        {
          "internalType": "uint256",
          "name": "index",
          "type": "uint256"
        }
      ],
      "name": "getPlayer",
      "outputs": [
        {
          "internalType": "address",
          "name": "",
          "type": "address"
        }
      ],
      "stateMutability": "view",
      "type": "function"
    },
    {
      "inputs": [],
      "name": "getRaffleState",
      "outputs": [
        {
          "internalType": "enum Raffle.RaffleState",
          "name": "",
          "type": "uint8"
        }
      ],
      "stateMutability": "view",
      "type": "function"
    },
    {
      "inputs": [],
      "name": "getRecentWinner",
      "outputs": [
        {
          "internalType": "address",
          "name": "",
          "type": "address"
        }
      ],
      "stateMutability": "view",
      "type": "function"
    },
    {
      "inputs": [],
      "name": "getRequestConfirmations",
      "outputs": [
        {
          "internalType": "uint256",
          "name": "",
          "type": "uint256"
        }
      ],
      "stateMutability": "pure",
      "type": "function"
    },
    {
      "inputs": [
        {
          "internalType": "bytes",
          "name": "",
          "type": "bytes"
        }
      ],
      "name": "performUpkeep",
      "outputs": [],
      "stateMutability": "nonpayable",
      "type": "function"
    },
    {
      "inputs": [
        {
          "internalType": "uint256",
          "name": "requestId",
          "type": "uint256"
        },
        {
          "internalType": "uint256[]",
          "name": "randomWords",
          "type": "uint256[]"
        }
      ],
      "name": "rawFulfillRandomWords",
      "outputs": [],
      "stateMutability": "nonpayable",
      "type": "function"
    }
  ],
  "bytecode": "0x6101606040523480156200001257600080fd5b5060405162001bac38038062001bac8339818101604052810190620000389190620003af565b858073ffffffffffffffffffffffffffffffffffffffff1660808173ffffffffffffffffffffffffffffffffffffffff1681525050508460a081815250508573ffffffffffffffffffffffffffffffffffffffff1660c08173ffffffffffffffffffffffffffffffffffffffff16815250508360e081815250508267ffffffffffffffff166101008167ffffffffffffffff16815250508163ffffffff166101208163ffffffff16815250506000600160146101000a81548160ff021916908360018111156200010d576200010c6200044b565b5b021790555042600281905550620001656040518060400160405280600e81526020017f696e74657276616c202d3e202564000000000000000000000000000000000000815250826200017a60201b6200092b1760201c565b80610140818152505050505050505062000559565b6200021c82826040516024016200019392919062000525565b6040516020818303038152906040527fb60e72cc000000000000000000000000000000000000000000000000000000007bffffffffffffffffffffffffffffffffffffffffffffffffffffffff19166020820180517bffffffffffffffffffffffffffffffffffffffffffffffffffffffff83818316178352505050506200022060201b60201c565b5050565b60008151905060006a636f6e736f6c652e6c6f679050602083016000808483855afa5050505050565b600080fd5b600073ffffffffffffffffffffffffffffffffffffffff82169050919050565b60006200027b826200024e565b9050919050565b6200028d816200026e565b81146200029957600080fd5b50565b600081519050620002ad8162000282565b92915050565b6000819050919050565b620002c881620002b3565b8114620002d457600080fd5b50565b600081519050620002e881620002bd565b92915050565b6000819050919050565b6200030381620002ee565b81146200030f57600080fd5b50565b6000815190506200032381620002f8565b92915050565b600067ffffffffffffffff82169050919050565b620003488162000329565b81146200035457600080fd5b50565b60008151905062000368816200033d565b92915050565b600063ffffffff82169050919050565b62000389816200036e565b81146200039557600080fd5b50565b600081519050620003a9816200037e565b92915050565b60008060008060008060c08789031215620003cf57620003ce62000249565b5b6000620003df89828a016200029c565b9650506020620003f289828a01620002d7565b95505060406200040589828a0162000312565b94505060606200041889828a0162000357565b93505060806200042b89828a0162000398565b92505060a06200043e89828a01620002d7565b9150509295509295509295565b7f4e487b7100000000000000000000000000000000000000000000000000000000600052602160045260246000fd5b600081519050919050565b600082825260208201905092915050565b60005b83811015620004b657808201518184015260208101905062000499565b60008484015250505050565b6000601f19601f8301169050919050565b6000620004e0826200047a565b620004ec818562000485565b9350620004fe81856020860162000496565b6200050981620004c2565b840191505092915050565b6200051f81620002b3565b82525050565b60006040820190508181036000830152620005418185620004d3565b905062000552602083018462000514565b9392505050565b60805160a05160c05160e0516101005161012051610140516115dc620005d0600039600081816107e70152818161088e01526108b4015260006106a50152600061068201526000610661015260006106250152600081816102fa01526103f7015260008181610337015261038b01526115dc6000f3fe6080604052600436106100c25760003560e01c8063473f1ddc1161007f5780636e04ff0d116100595780636e04ff0d1461022557806391ad27b414610263578063e55ae4e81461028e578063fd6673f5146102cb576100c2565b8063473f1ddc146101a457806353a2c19a146101cf5780635f1b0fd8146101fa576100c2565b806309bc33a7146100c7578063115cbaf5146100f25780631fe543e31461011d5780632cfcc53914610146578063320229eb146101505780634585e33b1461017b575b600080fd5b3480156100d357600080fd5b506100dc6102f6565b6040516100e99190610ce1565b60405180910390f35b3480156100fe57600080fd5b5061010761031e565b6040516101149190610d73565b60405180910390f35b34801561012957600080fd5b50610144600480360381019061013f9190610f27565b610335565b005b61014e6103f5565b005b34801561015c57600080fd5b50610165610564565b6040516101729190610ce1565b60405180910390f35b34801561018757600080fd5b506101a2600480360381019061019d9190610fde565b61056e565b005b3480156101b057600080fd5b506101b961075e565b6040516101c6919061106c565b60405180910390f35b3480156101db57600080fd5b506101e4610788565b6040516101f19190610ce1565b60405180910390f35b34801561020657600080fd5b5061020f610797565b60405161021c9190610ce1565b60405180910390f35b34801561023157600080fd5b5061024c6004803603810190610247919061113c565b6107a4565b60405161025a92919061121f565b60405180910390f35b34801561026f57600080fd5b50610278610851565b6040516102859190610ce1565b60405180910390f35b34801561029a57600080fd5b506102b560048036038101906102b0919061124f565b6108d8565b6040516102c2919061106c565b60405180910390f35b3480156102d757600080fd5b506102e061091f565b6040516102ed9190610ce1565b60405180910390f35b60007f0000000000000000000000000000000000000000000000000000000000000000905090565b6000600160149054906101000a900460ff16905090565b7f000000000000000000000000000000000000000000000000000000000000000073ffffffffffffffffffffffffffffffffffffffff163373ffffffffffffffffffffffffffffffffffffffff16146103e757337f00000000000000000000000000000000000000000000000000000000000000006040517f1cf993f40000000000000000000000000000000000000000000000000000000081526004016103de92919061127c565b60405180910390fd5b6103f182826109c7565b5050565b7f000000000000000000000000000000000000000000000000000000000000000034101561044f576040517fbd4e069500000000000000000000000000000000000000000000000000000000815260040160405180910390fd5b6000600181111561046357610462610cfc565b5b600160149054906101000a900460ff16600181111561048557610484610cfc565b5b146104bc576040517f1425571c00000000000000000000000000000000000000000000000000000000815260040160405180910390fd5b6000339080600181540180825580915050600190039060005260206000200160009091909190916101000a81548173ffffffffffffffffffffffffffffffffffffffff021916908373ffffffffffffffffffffffffffffffffffffffff1602179055503373ffffffffffffffffffffffffffffffffffffffff167f0805e1d667bddb8a95f0f09880cf94f403fb596ce79928d9f29b74203ba284d460405160405180910390a2565b6000600254905090565b6000610588604051806020016040528060008152506107a4565b509050806105f75747600080549050600160149054906101000a900460ff1660018111156105b9576105b8610cfc565b5b6040517f584327aa0000000000000000000000000000000000000000000000000000000081526004016105ee939291906112a5565b60405180910390fd5b60018060146101000a81548160ff0219169083600181111561061c5761061b610cfc565b5b021790555060007f000000000000000000000000000000000000000000000000000000000000000073ffffffffffffffffffffffffffffffffffffffff16635d3b1d307f00000000000000000000000000000000000000000000000000000000000000007f000000000000000000000000000000000000000000000000000000000000000060037f000000000000000000000000000000000000000000000000000000000000000060016040518663ffffffff1660e01b81526004016106e6959493929190611354565b6020604051808303816000875af1158015610705573d6000803e3d6000fd5b505050506040513d601f19601f8201168201806040525081019061072991906113bc565b9050807fcd6e45c8998311cab7e9d4385596cac867e20a0587194b954fa3a731c93ce78b60405160405180910390a250505050565b6000600160009054906101000a900473ffffffffffffffffffffffffffffffffffffffff16905090565b6000600163ffffffff16905090565b6000600361ffff16905090565b600060606000600160149054906101000a900460ff1660018111156107cc576107cb610cfc565b5b600060018111156107e0576107df610cfc565b5b14905060007f0000000000000000000000000000000000000000000000000000000000000000600254426108149190611418565b119050600080600080549050119050600080471190508380156108345750825b801561083d5750815b80156108465750805b955050505050915091565b60006108b26040518060400160405280601681526020017f67657420696e74657276616c2072657475726e202564000000000000000000008152507f000000000000000000000000000000000000000000000000000000000000000061092b565b7f0000000000000000000000000000000000000000000000000000000000000000905090565b60008082815481106108ed576108ec61144c565b5b9060005260206000200160009054906101000a900473ffffffffffffffffffffffffffffffffffffffff169050919050565b60008080549050905090565b6109c382826040516024016109419291906114d0565b6040516020818303038152906040527fb60e72cc000000000000000000000000000000000000000000000000000000007bffffffffffffffffffffffffffffffffffffffffffffffffffffffff19166020820180517bffffffffffffffffffffffffffffffffffffffffffffffffffffffff8381831617835250505050610bf8565b5050565b60008080549050826000815181106109e2576109e161144c565b5b60200260200101516109f4919061152f565b90506000808281548110610a0b57610a0a61144c565b5b9060005260206000200160009054906101000a900473ffffffffffffffffffffffffffffffffffffffff16905080600160006101000a81548173ffffffffffffffffffffffffffffffffffffffff021916908373ffffffffffffffffffffffffffffffffffffffff1602179055506000600160146101000a81548160ff02191690836001811115610a9f57610a9e610cfc565b5b0217905550600067ffffffffffffffff811115610abf57610abe610de4565b5b604051908082528060200260200182016040528015610aed5781602001602082028036833780820191505090505b5060009080519060200190610b03929190610c21565b504260028190555060008173ffffffffffffffffffffffffffffffffffffffff1647604051610b3190611591565b60006040518083038185875af1925050503d8060008114610b6e576040519150601f19603f3d011682016040523d82523d6000602084013e610b73565b606091505b5050905080610bae576040517fa1d04b3900000000000000000000000000000000000000000000000000000000815260040160405180910390fd5b8173ffffffffffffffffffffffffffffffffffffffff167f5b690ec4a06fe979403046eaeea5b3ce38524683c3001f662c8b5a829632f7df60405160405180910390a25050505050565b60008151905060006a636f6e736f6c652e6c6f679050602083016000808483855afa5050505050565b828054828255906000526020600020908101928215610c9a579160200282015b82811115610c995782518260006101000a81548173ffffffffffffffffffffffffffffffffffffffff021916908373ffffffffffffffffffffffffffffffffffffffff16021790555091602001919060010190610c41565b5b509050610ca79190610cab565b5090565b5b80821115610cc4576000816000905550600101610cac565b5090565b6000819050919050565b610cdb81610cc8565b82525050565b6000602082019050610cf66000830184610cd2565b92915050565b7f4e487b7100000000000000000000000000000000000000000000000000000000600052602160045260246000fd5b60028110610d3c57610d3b610cfc565b5b50565b6000819050610d4d82610d2b565b919050565b6000610d5d82610d3f565b9050919050565b610d6d81610d52565b82525050565b6000602082019050610d886000830184610d64565b92915050565b6000604051905090565b600080fd5b600080fd5b610dab81610cc8565b8114610db657600080fd5b50565b600081359050610dc881610da2565b92915050565b600080fd5b6000601f19601f8301169050919050565b7f4e487b7100000000000000000000000000000000000000000000000000000000600052604160045260246000fd5b610e1c82610dd3565b810181811067ffffffffffffffff82111715610e3b57610e3a610de4565b5b80604052505050565b6000610e4e610d8e565b9050610e5a8282610e13565b919050565b600067ffffffffffffffff821115610e7a57610e79610de4565b5b602082029050602081019050919050565b600080fd5b6000610ea3610e9e84610e5f565b610e44565b90508083825260208201905060208402830185811115610ec657610ec5610e8b565b5b835b81811015610eef5780610edb8882610db9565b845260208401935050602081019050610ec8565b5050509392505050565b600082601f830112610f0e57610f0d610dce565b5b8135610f1e848260208601610e90565b91505092915050565b60008060408385031215610f3e57610f3d610d98565b5b6000610f4c85828601610db9565b925050602083013567ffffffffffffffff811115610f6d57610f6c610d9d565b5b610f7985828601610ef9565b9150509250929050565b600080fd5b60008083601f840112610f9e57610f9d610dce565b5b8235905067ffffffffffffffff811115610fbb57610fba610f83565b5b602083019150836001820283011115610fd757610fd6610e8b565b5b9250929050565b60008060208385031215610ff557610ff4610d98565b5b600083013567ffffffffffffffff81111561101357611012610d9d565b5b61101f85828601610f88565b92509250509250929050565b600073ffffffffffffffffffffffffffffffffffffffff82169050919050565b60006110568261102b565b9050919050565b6110668161104b565b82525050565b6000602082019050611081600083018461105d565b92915050565b600080fd5b600067ffffffffffffffff8211156110a7576110a6610de4565b5b6110b082610dd3565b9050602081019050919050565b82818337600083830152505050565b60006110df6110da8461108c565b610e44565b9050828152602081018484840111156110fb576110fa611087565b5b6111068482856110bd565b509392505050565b600082601f83011261112357611122610dce565b5b81356111338482602086016110cc565b91505092915050565b60006020828403121561115257611151610d98565b5b600082013567ffffffffffffffff8111156111705761116f610d9d565b5b61117c8482850161110e565b91505092915050565b60008115159050919050565b61119a81611185565b82525050565b600081519050919050565b600082825260208201905092915050565b60005b838110156111da5780820151818401526020810190506111bf565b60008484015250505050565b60006111f1826111a0565b6111fb81856111ab565b935061120b8185602086016111bc565b61121481610dd3565b840191505092915050565b60006040820190506112346000830185611191565b818103602083015261124681846111e6565b90509392505050565b60006020828403121561126557611264610d98565b5b600061127384828501610db9565b91505092915050565b6000604082019050611291600083018561105d565b61129e602083018461105d565b9392505050565b60006060820190506112ba6000830186610cd2565b6112c76020830185610cd2565b6112d46040830184610cd2565b949350505050565b6000819050919050565b6112ef816112dc565b82525050565b600067ffffffffffffffff82169050919050565b611312816112f5565b82525050565b600061ffff82169050919050565b61132f81611318565b82525050565b600063ffffffff82169050919050565b61134e81611335565b82525050565b600060a08201905061136960008301886112e6565b6113766020830187611309565b6113836040830186611326565b6113906060830185611345565b61139d6080830184611345565b9695505050505050565b6000815190506113b681610da2565b92915050565b6000602082840312156113d2576113d1610d98565b5b60006113e0848285016113a7565b91505092915050565b7f4e487b7100000000000000000000000000000000000000000000000000000000600052601160045260246000fd5b600061142382610cc8565b915061142e83610cc8565b9250828203905081811115611446576114456113e9565b5b92915050565b7f4e487b7100000000000000000000000000000000000000000000000000000000600052603260045260246000fd5b600081519050919050565b600082825260208201905092915050565b60006114a28261147b565b6114ac8185611486565b93506114bc8185602086016111bc565b6114c581610dd3565b840191505092915050565b600060408201905081810360008301526114ea8185611497565b90506114f96020830184610cd2565b9392505050565b7f4e487b7100000000000000000000000000000000000000000000000000000000600052601260045260246000fd5b600061153a82610cc8565b915061154583610cc8565b92508261155557611554611500565b5b828206905092915050565b600081905092915050565b50565b600061157b600083611560565b91506115868261156b565b600082019050919050565b600061159c8261156e565b915081905091905056fea26469706673582212200659d4282af2aefcc5fdc810bd5a964d76f05a9e9b6b86cc30544c4250999dfa64736f6c63430008110033",
  "linkReferences": {},
  "deployedLinkReferences": {}
}