{
  "_format": "hh-sol-artifact-1",
  "contractName": "Raffle",
  "sourceName": "contracts/Raffle.sol",
  "abi": [
    {
      "inputs": [
        {
          "internalType": "address",
          "name": "vrfCoordinator",
          "type": "address"
        },
        {
          "internalType": "uint256",
          "name": "entranceFee",
          "type": "uint256"
        },
        {
          "internalType": "bytes32",
          "name": "gasLane",
          "type": "bytes32"
        },
        {
          "internalType": "uint64",
          "name": "subscriptionId",
          "type": "uint64"
        },
        {
          "internalType": "uint32",
          "name": "callbackGasLimit",
          "type": "uint32"
        },
        {
          "internalType": "uint256",
          "name": "interval",
          "type": "uint256"
        }
      ],
      "stateMutability": "nonpayable",
      "type": "constructor"
    },
    {
      "inputs": [
        {
          "internalType": "address",
          "name": "have",
          "type": "address"
        },
        {
          "internalType": "address",
          "name": "want",
          "type": "address"
        }
      ],
      "name": "OnlyCoordinatorCanFulfill",
      "type": "error"
    },
    {
      "inputs": [],
      "name": "Raffle__NotEnoughETHEntered",
      "type": "error"
    },
    {
      "inputs": [],
      "name": "Raffle__NotOpen",
      "type": "error"
    },
    {
      "inputs": [],
      "name": "Raffle__TransferFailed",
      "type": "error"
    },
    {
      "inputs": [
        {
          "internalType": "uint256",
          "name": "currentBalance",
          "type": "uint256"
        },
        {
          "internalType": "uint256",
          "name": "numPlayers",
          "type": "uint256"
        },
        {
          "internalType": "uint256",
          "name": "raffleState",
          "type": "uint256"
        }
      ],
      "name": "Raffle__UpkeepNotNeeded",
      "type": "error"
    },
    {
      "anonymous": false,
      "inputs": [
        {
          "indexed": true,
          "internalType": "address",
          "name": "player",
          "type": "address"
        }
      ],
      "name": "RaffleEnter",
      "type": "event"
    },
    {
      "anonymous": false,
      "inputs": [
        {
          "indexed": true,
          "internalType": "uint256",
          "name": "requestId",
          "type": "uint256"
        }
      ],
      "name": "RequestedRaffleWinner",
      "type": "event"
    },
    {
      "anonymous": false,
      "inputs": [
        {
          "indexed": true,
          "internalType": "address",
          "name": "winner",
          "type": "address"
        }
      ],
      "name": "WinnerPicked",
      "type": "event"
    },
    {
      "inputs": [
        {
          "internalType": "bytes",
          "name": "",
          "type": "bytes"
        }
      ],
      "name": "checkUpkeep",
      "outputs": [
        {
          "internalType": "bool",
          "name": "upkeepNeeded",
          "type": "bool"
        },
        {
          "internalType": "bytes",
          "name": "",
          "type": "bytes"
        }
      ],
      "stateMutability": "nonpayable",
      "type": "function"
    },
    {
      "inputs": [],
      "name": "enterRaffle",
      "outputs": [],
      "stateMutability": "payable",
      "type": "function"
    },
    {
      "inputs": [],
      "name": "getEntranceFee",
      "outputs": [
        {
          "internalType": "uint256",
          "name": "",
          "type": "uint256"
        }
      ],
      "stateMutability": "view",
      "type": "function"
    },
    {
      "inputs": [],
      "name": "getInterval",
      "outputs": [
        {
          "internalType": "uint256",
          "name": "",
          "type": "uint256"
        }
      ],
      "stateMutability": "view",
      "type": "function"
    },
    {
      "inputs": [],
      "name": "getLatestTimeStamp",
      "outputs": [
        {
          "internalType": "uint256",
          "name": "",
          "type": "uint256"
        }
      ],
      "stateMutability": "view",
      "type": "function"
    },
    {
      "inputs": [],
      "name": "getNumWords",
      "outputs": [
        {
          "internalType": "uint256",
          "name": "",
          "type": "uint256"
        }
      ],
      "stateMutability": "pure",
      "type": "function"
    },
    {
      "inputs": [],
      "name": "getNumberOfPlayers",
      "outputs": [
        {
          "internalType": "uint256",
          "name": "",
          "type": "uint256"
        }
      ],
      "stateMutability": "view",
      "type": "function"
    },
    {
      "inputs": [
        {
          "internalType": "uint256",
          "name": "index",
          "type": "uint256"
        }
      ],
      "name": "getPlayer",
      "outputs": [
        {
          "internalType": "address",
          "name": "",
          "type": "address"
        }
      ],
      "stateMutability": "view",
      "type": "function"
    },
    {
      "inputs": [],
      "name": "getRaffleState",
      "outputs": [
        {
          "internalType": "enum Raffle.RaffleState",
          "name": "",
          "type": "uint8"
        }
      ],
      "stateMutability": "view",
      "type": "function"
    },
    {
      "inputs": [],
      "name": "getRecentWinner",
      "outputs": [
        {
          "internalType": "address",
          "name": "",
          "type": "address"
        }
      ],
      "stateMutability": "view",
      "type": "function"
    },
    {
      "inputs": [],
      "name": "getRequestConfirmations",
      "outputs": [
        {
          "internalType": "uint256",
          "name": "",
          "type": "uint256"
        }
      ],
      "stateMutability": "pure",
      "type": "function"
    },
    {
      "inputs": [
        {
          "internalType": "bytes",
          "name": "",
          "type": "bytes"
        }
      ],
      "name": "performUpkeep",
      "outputs": [],
      "stateMutability": "nonpayable",
      "type": "function"
    },
    {
      "inputs": [
        {
          "internalType": "uint256",
          "name": "requestId",
          "type": "uint256"
        },
        {
          "internalType": "uint256[]",
          "name": "randomWords",
          "type": "uint256[]"
        }
      ],
      "name": "rawFulfillRandomWords",
      "outputs": [],
      "stateMutability": "nonpayable",
      "type": "function"
    }
  ],
  "bytecode": "0x6101606040523480156200001257600080fd5b5060405162001f8138038062001f81833981810160405281019062000038919062000393565b858073ffffffffffffffffffffffffffffffffffffffff1660808173ffffffffffffffffffffffffffffffffffffffff1681525050506200008a67f552307ead73ed5860c01b6200022a60201b60201c565b620000a6675d01636e98b574a560c01b6200022a60201b60201c565b8460a08181525050620000ca675551321ef76de4f660c01b6200022a60201b60201c565b8573ffffffffffffffffffffffffffffffffffffffff1660c08173ffffffffffffffffffffffffffffffffffffffff16815250506200011a67e0cdbf10bba64b0e60c01b6200022a60201b60201c565b8360e081815250506200013e6771fe4102478906e760c01b6200022a60201b60201c565b8267ffffffffffffffff166101008167ffffffffffffffff16815250506200017767fcaf3599addc336860c01b6200022a60201b60201c565b8163ffffffff166101208163ffffffff1681525050620001a8671e62cfb74e31273d60c01b6200022a60201b60201c565b6000600160146101000a81548160ff02191690836001811115620001d157620001d06200042f565b5b0217905550620001f26767c21e2b31bffa6760c01b6200022a60201b60201c565b426002819055506200021567bfff665778b7107c60c01b6200022a60201b60201c565b8061014081815250505050505050506200045e565b50565b600080fd5b600073ffffffffffffffffffffffffffffffffffffffff82169050919050565b60006200025f8262000232565b9050919050565b620002718162000252565b81146200027d57600080fd5b50565b600081519050620002918162000266565b92915050565b6000819050919050565b620002ac8162000297565b8114620002b857600080fd5b50565b600081519050620002cc81620002a1565b92915050565b6000819050919050565b620002e781620002d2565b8114620002f357600080fd5b50565b6000815190506200030781620002dc565b92915050565b600067ffffffffffffffff82169050919050565b6200032c816200030d565b81146200033857600080fd5b50565b6000815190506200034c8162000321565b92915050565b600063ffffffff82169050919050565b6200036d8162000352565b81146200037957600080fd5b50565b6000815190506200038d8162000362565b92915050565b60008060008060008060c08789031215620003b357620003b26200022d565b5b6000620003c389828a0162000280565b9650506020620003d689828a01620002bb565b9550506040620003e989828a01620002f6565b9450506060620003fc89828a016200033b565b93505060806200040f89828a016200037c565b92505060a06200042289828a01620002bb565b9150509295509295509295565b7f4e487b7100000000000000000000000000000000000000000000000000000000600052602160045260246000fd5b60805160a05160c05160e051610100516101205161014051611ab3620004ce60003960008181610be20152610cf0015260006109600152600061093d0152600061091c015260006108e001526000818161033601526104ab0152600081816103af01526104030152611ab36000f3fe6080604052600436106100c25760003560e01c8063473f1ddc1161007f5780636e04ff0d116100595780636e04ff0d1461022557806391ad27b414610263578063e55ae4e81461028e578063fd6673f5146102cb576100c2565b8063473f1ddc146101a457806353a2c19a146101cf5780635f1b0fd8146101fa576100c2565b806309bc33a7146100c7578063115cbaf5146100f25780631fe543e31461011d5780632cfcc53914610146578063320229eb146101505780634585e33b1461017b575b600080fd5b3480156100d357600080fd5b506100dc6102f6565b6040516100e9919061123d565b60405180910390f35b3480156100fe57600080fd5b5061010761035a565b60405161011491906112cf565b60405180910390f35b34801561012957600080fd5b50610144600480360381019061013f9190611483565b6103ad565b005b61014e61046d565b005b34801561015c57600080fd5b50610165610707565b604051610172919061123d565b60405180910390f35b34801561018757600080fd5b506101a2600480360381019061019d919061153a565b61074d565b005b3480156101b057600080fd5b506101b9610a41565b6040516101c691906115c8565b60405180910390f35b3480156101db57600080fd5b506101e4610aa7565b6040516101f1919061123d565b60405180910390f35b34801561020657600080fd5b5061020f610af2565b60405161021c919061123d565b60405180910390f35b34801561023157600080fd5b5061024c60048036038101906102479190611698565b610b3b565b60405161025a92919061177b565b60405180910390f35b34801561026f57600080fd5b50610278610cb0565b604051610285919061123d565b60405180910390f35b34801561029a57600080fd5b506102b560048036038101906102b091906117ab565b610d14565b6040516102c291906115c8565b60405180910390f35b3480156102d757600080fd5b506102e0610d98565b6040516102ed919061123d565b60405180910390f35b600061030c67cf55de96b19363fd60c01b610de1565b61032067db497685265fde5b60c01b610de1565b61033467ac085d38e1bbeced60c01b610de1565b7f0000000000000000000000000000000000000000000000000000000000000000905090565b60006103706740bf159de8d7161d60c01b610de1565b610384677896cfe06333fa9560c01b610de1565b61039867fd22a0293513c5b160c01b610de1565b600160149054906101000a900460ff16905090565b7f000000000000000000000000000000000000000000000000000000000000000073ffffffffffffffffffffffffffffffffffffffff163373ffffffffffffffffffffffffffffffffffffffff161461045f57337f00000000000000000000000000000000000000000000000000000000000000006040517f1cf993f40000000000000000000000000000000000000000000000000000000081526004016104569291906117d8565b60405180910390fd5b6104698282610de4565b5050565b61048167f645a3a0ee0fd77360c01b610de1565b61049567d51e0c41fd8e105a60c01b610de1565b6104a9671110c40f17b69c7f60c01b610de1565b7f000000000000000000000000000000000000000000000000000000000000000034101561052b576104e567b0834e6acd4661c560c01b610de1565b6104f96778648c714a9f1f8360c01b610de1565b6040517fbd4e069500000000000000000000000000000000000000000000000000000000815260040160405180910390fd5b61053f679eaf934165c1cc6f60c01b610de1565b610553674a6ec34ac921409860c01b610de1565b61056767a810efc289ddd55b60c01b610de1565b6000600181111561057b5761057a611258565b5b600160149054906101000a900460ff16600181111561059d5761059c611258565b5b146105fc576105b667f4ad17ffa4fdf1d860c01b610de1565b6105ca675672d6d95511f85160c01b610de1565b6040517f1425571c00000000000000000000000000000000000000000000000000000000815260040160405180910390fd5b61060f66aa6639e97dff4860c01b610de1565b6106236720ceaa239eaec05460c01b610de1565b610637672c5595fe6ff08f5b60c01b610de1565b6000339080600181540180825580915050600190039060005260206000200160009091909190916101000a81548173ffffffffffffffffffffffffffffffffffffffff021916908373ffffffffffffffffffffffffffffffffffffffff1602179055506106ae67ef8dfe5fbc4feec860c01b610de1565b6106c26798cab4c20da8479560c01b610de1565b3373ffffffffffffffffffffffffffffffffffffffff167f0805e1d667bddb8a95f0f09880cf94f403fb596ce79928d9f29b74203ba284d460405160405180910390a2565b600061071d67740bc6d043758c5560c01b610de1565b610731675ce76abc7521551a60c01b610de1565b6107456780d6cce943d1c96b60c01b610de1565b600254905090565b6107616707fb825cf409225460c01b610de1565b61077567f27ee98a13b791c960c01b610de1565b61078967e3d4abce5997ca0560c01b610de1565b60006107a360405180602001604052806000815250610b3b565b5090506107ba6736339ef4d9d8637560c01b610de1565b6107ce67164803d0c06f647660c01b610de1565b80610862576107e76702733725c413457260c01b610de1565b6107fb6780df0d3fb543aa4260c01b610de1565b47600080549050600160149054906101000a900460ff16600181111561082457610823611258565b5b6040517f584327aa00000000000000000000000000000000000000000000000000000000815260040161085993929190611801565b60405180910390fd5b61087667e0915e2fd0844bf260c01b610de1565b61088a67b19c3cb08465d59460c01b610de1565b60018060146101000a81548160ff021916908360018111156108af576108ae611258565b5b02179055506108c8671a987cb0264f2b3060c01b610de1565b6108dc6793eb5d5ac4704b4660c01b610de1565b60007f000000000000000000000000000000000000000000000000000000000000000073ffffffffffffffffffffffffffffffffffffffff16635d3b1d307f00000000000000000000000000000000000000000000000000000000000000007f000000000000000000000000000000000000000000000000000000000000000060037f000000000000000000000000000000000000000000000000000000000000000060016040518663ffffffff1660e01b81526004016109a19594939291906118b0565b6020604051808303816000875af11580156109c0573d6000803e3d6000fd5b505050506040513d601f19601f820116820180604052508101906109e49190611918565b90506109fa67d2e3cafabb23066c60c01b610de1565b610a0e67cc7c1fc34e7ee90760c01b610de1565b807fcd6e45c8998311cab7e9d4385596cac867e20a0587194b954fa3a731c93ce78b60405160405180910390a250505050565b6000610a5767e68da041d21872f760c01b610de1565b610a6b671235a30f50f1529d60c01b610de1565b610a7f676129b8e229d6ee4960c01b610de1565b600160009054906101000a900473ffffffffffffffffffffffffffffffffffffffff16905090565b6000610abd679cf1ca0ce511660460c01b610de1565b610ad1675b4650d3704294f860c01b610de1565b610ae567f06523b1cf7e3a7b60c01b610de1565b600163ffffffff16905090565b6000610b0867c2ca4b06b7e7cfbe60c01b610de1565b610b1c679f83d812255546bf60c01b610de1565b610b3067a181494d6ef390e960c01b610de1565b600361ffff16905090565b60006060610b53674688518a0a65abac60c01b610de1565b610b6767ca23861da4b0124b60c01b610de1565b610b7b67e48153d90c48af1260c01b610de1565b6000600160149054906101000a900460ff166001811115610b9f57610b9e611258565b5b60006001811115610bb357610bb2611258565b5b149050610bca6768fd4f994297509760c01b610de1565b610bde67dd04644b921c256a60c01b610de1565b60007f000000000000000000000000000000000000000000000000000000000000000060025442610c0f9190611974565b119050610c266745ab7098eaa5bd2660c01b610de1565b610c3a67eaa965827cbc70ef60c01b610de1565b600080600080549050119050610c5a6706791ff747f982c760c01b610de1565b610c6e674c6986ef0dcc08dc60c01b610de1565b60008047119050610c8967c71adb5809c48b5560c01b610de1565b838015610c935750825b8015610c9c5750815b8015610ca55750805b955050505050915091565b6000610cc66742d7653478e8728f60c01b610de1565b610cda67b29e0d5b4be234d760c01b610de1565b610cee67d84bb46a5c76bb0a60c01b610de1565b7f0000000000000000000000000000000000000000000000000000000000000000905090565b6000610d2a67f6b1c0be2b6fd08860c01b610de1565b610d3e677eab27eabde6ae7d60c01b610de1565b610d5267d69be3992175c1ce60c01b610de1565b60008281548110610d6657610d656119a8565b5b9060005260206000200160009054906101000a900473ffffffffffffffffffffffffffffffffffffffff169050919050565b6000610dae6789c54db48083e58060c01b610de1565b610dc267fb004eddfd8ca5d160c01b610de1565b610dd667b48585535227bac860c01b610de1565b600080549050905090565b50565b610df867ad82a5e75b10668c60c01b610de1565b610e0c67c7509e2008d27a4960c01b610de1565b610e206794eae143f49195cb60c01b610de1565b6000808054905082600081518110610e3b57610e3a6119a8565b5b6020026020010151610e4d9190611a06565b9050610e63679d0294b2744a8da960c01b610de1565b610e776783d8c979bb925abd60c01b610de1565b6000808281548110610e8c57610e8b6119a8565b5b9060005260206000200160009054906101000a900473ffffffffffffffffffffffffffffffffffffffff169050610ecd6711071dc4db492c4860c01b610de1565b80600160006101000a81548173ffffffffffffffffffffffffffffffffffffffff021916908373ffffffffffffffffffffffffffffffffffffffff160217905550610f226705e1cd221e61547660c01b610de1565b6000600160146101000a81548160ff02191690836001811115610f4857610f47611258565b5b0217905550610f61670c6f29150886e1cd60c01b610de1565b600067ffffffffffffffff811115610f7c57610f7b611340565b5b604051908082528060200260200182016040528015610faa5781602001602082028036833780820191505090505b5060009080519060200190610fc092919061117d565b50610fd5675b792b0851f534c360c01b610de1565b42600281905550610ff067c0b07d471ea634e860c01b610de1565b61100467904d26618e95038760c01b610de1565b60008173ffffffffffffffffffffffffffffffffffffffff164760405161102a90611a68565b60006040518083038185875af1925050503d8060008114611067576040519150601f19603f3d011682016040523d82523d6000602084013e61106c565b606091505b5050905061108467ca073c0c9bae977660c01b610de1565b61109867b045706be4771de060c01b610de1565b806110f7576110b167288202584818c02060c01b610de1565b6110c567de2d5aab2f9ea88560c01b610de1565b6040517fa1d04b3900000000000000000000000000000000000000000000000000000000815260040160405180910390fd5b61110b67b962351aeb43f77860c01b610de1565b61111f678a400d362e469f5560c01b610de1565b611133674e51c6c42f54ee2660c01b610de1565b8173ffffffffffffffffffffffffffffffffffffffff167f5b690ec4a06fe979403046eaeea5b3ce38524683c3001f662c8b5a829632f7df60405160405180910390a25050505050565b8280548282559060005260206000209081019282156111f6579160200282015b828111156111f55782518260006101000a81548173ffffffffffffffffffffffffffffffffffffffff021916908373ffffffffffffffffffffffffffffffffffffffff1602179055509160200191906001019061119d565b5b5090506112039190611207565b5090565b5b80821115611220576000816000905550600101611208565b5090565b6000819050919050565b61123781611224565b82525050565b6000602082019050611252600083018461122e565b92915050565b7f4e487b7100000000000000000000000000000000000000000000000000000000600052602160045260246000fd5b6002811061129857611297611258565b5b50565b60008190506112a982611287565b919050565b60006112b98261129b565b9050919050565b6112c9816112ae565b82525050565b60006020820190506112e460008301846112c0565b92915050565b6000604051905090565b600080fd5b600080fd5b61130781611224565b811461131257600080fd5b50565b600081359050611324816112fe565b92915050565b600080fd5b6000601f19601f8301169050919050565b7f4e487b7100000000000000000000000000000000000000000000000000000000600052604160045260246000fd5b6113788261132f565b810181811067ffffffffffffffff8211171561139757611396611340565b5b80604052505050565b60006113aa6112ea565b90506113b6828261136f565b919050565b600067ffffffffffffffff8211156113d6576113d5611340565b5b602082029050602081019050919050565b600080fd5b60006113ff6113fa846113bb565b6113a0565b90508083825260208201905060208402830185811115611422576114216113e7565b5b835b8181101561144b57806114378882611315565b845260208401935050602081019050611424565b5050509392505050565b600082601f83011261146a5761146961132a565b5b813561147a8482602086016113ec565b91505092915050565b6000806040838503121561149a576114996112f4565b5b60006114a885828601611315565b925050602083013567ffffffffffffffff8111156114c9576114c86112f9565b5b6114d585828601611455565b9150509250929050565b600080fd5b60008083601f8401126114fa576114f961132a565b5b8235905067ffffffffffffffff811115611517576115166114df565b5b602083019150836001820283011115611533576115326113e7565b5b9250929050565b60008060208385031215611551576115506112f4565b5b600083013567ffffffffffffffff81111561156f5761156e6112f9565b5b61157b858286016114e4565b92509250509250929050565b600073ffffffffffffffffffffffffffffffffffffffff82169050919050565b60006115b282611587565b9050919050565b6115c2816115a7565b82525050565b60006020820190506115dd60008301846115b9565b92915050565b600080fd5b600067ffffffffffffffff82111561160357611602611340565b5b61160c8261132f565b9050602081019050919050565b82818337600083830152505050565b600061163b611636846115e8565b6113a0565b905082815260208101848484011115611657576116566115e3565b5b611662848285611619565b509392505050565b600082601f83011261167f5761167e61132a565b5b813561168f848260208601611628565b91505092915050565b6000602082840312156116ae576116ad6112f4565b5b600082013567ffffffffffffffff8111156116cc576116cb6112f9565b5b6116d88482850161166a565b91505092915050565b60008115159050919050565b6116f6816116e1565b82525050565b600081519050919050565b600082825260208201905092915050565b60005b8381101561173657808201518184015260208101905061171b565b60008484015250505050565b600061174d826116fc565b6117578185611707565b9350611767818560208601611718565b6117708161132f565b840191505092915050565b600060408201905061179060008301856116ed565b81810360208301526117a28184611742565b90509392505050565b6000602082840312156117c1576117c06112f4565b5b60006117cf84828501611315565b91505092915050565b60006040820190506117ed60008301856115b9565b6117fa60208301846115b9565b9392505050565b6000606082019050611816600083018661122e565b611823602083018561122e565b611830604083018461122e565b949350505050565b6000819050919050565b61184b81611838565b82525050565b600067ffffffffffffffff82169050919050565b61186e81611851565b82525050565b600061ffff82169050919050565b61188b81611874565b82525050565b600063ffffffff82169050919050565b6118aa81611891565b82525050565b600060a0820190506118c56000830188611842565b6118d26020830187611865565b6118df6040830186611882565b6118ec60608301856118a1565b6118f960808301846118a1565b9695505050505050565b600081519050611912816112fe565b92915050565b60006020828403121561192e5761192d6112f4565b5b600061193c84828501611903565b91505092915050565b7f4e487b7100000000000000000000000000000000000000000000000000000000600052601160045260246000fd5b600061197f82611224565b915061198a83611224565b92508282039050818111156119a2576119a1611945565b5b92915050565b7f4e487b7100000000000000000000000000000000000000000000000000000000600052603260045260246000fd5b7f4e487b7100000000000000000000000000000000000000000000000000000000600052601260045260246000fd5b6000611a1182611224565b9150611a1c83611224565b925082611a2c57611a2b6119d7565b5b828206905092915050565b600081905092915050565b50565b6000611a52600083611a37565b9150611a5d82611a42565b600082019050919050565b6000611a7382611a45565b915081905091905056fea26469706673582212209a8d59b00f998f1cb538442483cb398b569984fb72d552ed0899c1194cec3a6864736f6c63430008110033",
  "linkReferences": {},
  "deployedLinkReferences": {}
}